:020000040000FA
:0600000045EF1FF01200A5
:0610000045EF1FF0120095
:081008009EA288EF1CF09E92ED
:0610100017EF08F01200CA
:021016001200C6
:0610180088EF1CF012003D
:0E1020000100A63E0000D40100000400000004
:02102E0042700E
:1010300042A011005B3E04D05C5005E08B8C05D0D3
:101040005C505B6402D05C3C8B9C82BAFED782AA67
:10105000FED78B8282BAFED782AAFED7000000009C
:101060008B9242AC11000000439E000082BE438E72
:10107000000000000000000000000000439C000091
:1010800082BE438C00000000000000000000000051
:10109000439A000082BE438A000000000000000066
:1010A000000000004398000082BE4388000000005A
:1010B00000000000000000004396000082BE43864E
:1010C0000000000000000000000000004394000049
:1010D00082BE438400000000000000000000000009
:1010E0004392000082BE4382000000000000000026
:1010F000000000004390000082BE43800000446A6C
:10110000456A466A43AE03D04468456846680001B4
:101110004D50516E4E50526E4F50536E5050546E53
:1011200049504D6E556E4A504E6E566E4B504F6E36
:10113000576E4C50506E586E50AE0BD0551E561E0A
:10114000571E581E552AD8B4562AD8B4572AD8B490
:10115000582A55504702F350006FF450016F575012
:101160004702F350026FF450036F58504802F35097
:10117000046FF450056F56504702F3500127F450A6
:101180000223E86A03230423052358504702F3503F
:101190000327F4500423E86A052355504802F3500E
:1011A0000127F4500223E86A032304230523565041
:1011B0004802F3500227F4500323E86A042305236E
:1011C00057504802F3500327F4500423E86A0523DC
:1011D000D8900037013702370337043705370551F8
:1011E0004C6E04514B6E03514A6E0251496E50AE23
:1011F0000BD0491E4A1E4B1E4C1E492AD8B44A2AFF
:10120000D8B44B2AD8B44C2A5150495E52504A5A4D
:1012100053504B5A54504C5A4350492644504A223A
:1012200045504B2246504C224006000E415A405039
:10123000411003E1428A429C0000000011001200AC
:10124000D9CFE6FFE1CFD9FFFD0EDBCF59F0FE0E7F
:10125000DBCF5AF059505A1002E00400FBD7E55298
:10126000E7CFD9FF1200AC6AAB6AB86AAC84190E3A
:10127000AF6EAB8EAC8A12005DEC12F0FE0EDB504E
:10128000A96EA69EA69CA680A85062EF12F0D9CFA8
:10129000E6FFE1CFD9FFFD0EDB50A96EFE0EDB505D
:1012A000A86EA69EA69CA684F29E550EA76EAA0EB8
:1012B000A76EA682A6B2FED7A694F28EE552E7CF1D
:1012C000D9FF1200CBEC13F0FE0EDBCF01F001C012
:1012D00000F00150DF6E39EC13F0010E00C0DBFFAF
:1012E000FC0EDBCFE6FFDFCFE6FFD1DFE552E552B4
:1012F000FC0EDB28E66E010EDBCFE6FFC8DFE55211
:10130000E552020EE15C02E2E16AE552E16E62EF53
:1013100012F0CBEC13F0FE0EDBCFE6FFADDFE552B3
:10132000DF6EFE0EDB2874EC12F0E76E010EE7CFE5
:10133000DBFFDF50026E036A036E026A010EDB50B0
:1013400000010224006E000E0320016E00C0F3FFB6
:10135000F46E020EE15C02E2E16AE552E16E62EFD8
:1013600012F05DEC12F09EA8FED7FE0EDB50AD6EC3
:1013700062EF12F00D0E51EC12F00A0E51EF12F066
:101380005DEC12F0FE0EDB50090804E2FE0EDB50AD
:10139000370F03D0FE0EDB50300F62EF12F05DEC22
:1013A00012F0FE0EDB380F0B0F0B0101246FFE0E47
:1013B000DB500F0B256F24C1E6FFE2DFE55251EC55
:1013C00012F025C1E6FFDCDFE55251EC12F062EFCE
:1013D00012F05DEC12F0FE0EDBCF01F001C000F068
:1013E000016A0050E66EDBDFE55239EC13F0005085
:1013F000E66ED5DFE552200E51EC12F062EF12F0EE
:101400005DEC12F00101C46BC56BC66BE150E4ECFE
:1014100012F004E1300E51EC12F032D0ECEC12F08C
:1014200009E156EC12F0640E005EF5EC13F00101D8
:10143000C42BF4D7640EBFEC13F00101C407ECEC2D
:1014400012F009E156EC12F00A0E005EF5EC13F012
:101450000101C52BF4D70A0EBFEC13F00101C5073B
:10146000ECEC12F008E156EC12F00006F5EC13F08B
:101470000101C62BF5D7010EBFEC13F00101C60721
:1014800062EF12F0D8EC13F0300E0101C45D02E1FE
:10149000200EC46FDF6A030EDF5C03E2AFEC13F0D3
:1014A000FAD7E55262EF12F0D8EC13F0010EDF6EBE
:1014B000030EDF5C03E2AFEC13F0FAD7E55262EF04
:1014C00012F0CBEC13F0640E006E016A29EC13F0FD
:1014D00000C039F001C03AF086EC15F03450DF6EF0
:1014E000640EDF02F350026E036A29EC13F0F3502E
:1014F000345C006E03503558016E010E00C0DBFFF6
:10150000DFCFE6FFE66ABEDFE552E5522E0E51EC74
:1015100012F0010EDBCFE6FFE66AC6DFE552E552C8
:10152000020EE15C02E2E16AE552E16E62EF12F066
:10153000CBEC13F0DE52800EDD6EDF6A080EDF5C4E
:1015400016E2010EDBCFE6FFFE0EDB50E552E7149C
:1015500002E0310E01D0300E51EC12F0010EDB40F2
:101560007F0BE76E010EE7CFDBFFDF2AE7D7200E08
:1015700051EC12F0020EE15C02E2E16AE552E16E2A
:1015800062EF12F05DEC12F0040EE1260101010E93
:10159000BA6F020E79EC12F08B84948482B465D019
:1015A00082A4FED742EC13F00A0E66EC12F0020E93
:1015B000F3CFDBFF030EF4CFDBFF460E51EC12F04E
:1015C000020EDBCFE6FF030EDBCFE6FF86EC13F067
:1015D000D2EC12F0100EEE1805E1270EED1802E124
:1015E000420E27D0D2EC12F0420EEE1805E1270E83
:1015F000ED1802E1740E1DD0D2EC12F0740EEE184C
:1016000005E1270EED1802E1A60E13D0D2EC12F080
:10161000A60EEE1805E1270EED1802E1D80E09D04E
:10162000D2EC12F0D80EEE1807E1270EED1804E107
:10163000100EDE6E270EDD6E9DDE460EE0EC13F022
:10164000DECFE6FFDDCFE6FF86EC13F00101C20539
:101650000AE10A0EE66EDECFE6FFDDCFE6FF32DE00
:10166000E552E552E552CFEC13F09494040EE15CA0
:1016700002E2E16AE552E16E62EF12F00101986B5D
:10168000996B8D6B8E6B896B8A6B966B976B8B6B83
:101690008C6B876B886B5D6A5E6A12005DEC12F082
:1016A000E150E4EC12F007E1010EF36EFD0EF3CF12
:1016B000DBFFFE0EDB6AFD0EDBCF9CF1FE0EDBCF07
:1016C0009DF101019DC19CF19D6B346A010E356E47
:1016D00090EC13F01FEC1FF034C09EF135C09FF169
:1016E0009CC19AF19DC19BF156EC12F000C0F3FF32
:1016F00001C0F4FF62EF12F05DEC12F0FD0EDBCFE3
:1017000092F1FE0EDBCF93F1E9EC13F0F3CF98F1F9
:10171000F4CF99F162EF12F05DEC12F0FD0EDBCF29
:1017200094F1FE0EDBCF95F1E9EC13F0F3CF96F1D7
:10173000F4CF97F162EF12F0CBEC13F09FDF0101D1
:10174000A751050A2AE0010A11E0070A2CE0010A64
:1017500006E0030A28E1010EE66EE66A04D07DC1C8
:10176000E6FF7EC1E6FFE4EC13F01DD0C907C951C6
:10177000000802E27A5117E1C75103E081EC13F04F
:1017800004D0010EE66EE66AB7DFE552E5520101CC
:10179000010EC86F030EC96F06D0FE0EDB50D88055
:1017A0008F55E8245C6E020EE15C02E2E16AE552CC
:1017B000E16E62EF12F062DF0101A751050A18E045
:1017C000010A0AE0060A03E0030A12E012007FC1E0
:1017D000E6FF80C1E6FF0FD0C85107E0C75102E025
:1017E000000E01D0010EC76FC86B050EC96F120045
:1017F000010EE66EE66A90DFE552E55212005DECFE
:1018000012F0050EE12601017A5127E0D950FD0FB3
:10181000E96EFF0EDA20EA6EFF0EEE1802E1FF0E0F
:10182000ED181BE0D950E4EC12F017E056EC12F082
:10183000D890015004E62C0E005C010E01580DE317
:10184000FD0EDBCF02F0FE0EDBCF03F0033407E228
:1018500002505408240E035402E2000E8FD1006A95
:10186000016A026A400E036E00C0E6FF01C0E6FF97
:1018700002C0E6FFE66EDA0E106E0F0E116EC90E94
:10188000126E400E136E29EC13F001EC14F054ECC0
:1018900013F06BEC12F010C033F011C034F012C032
:1018A00035F013C036F019EC15F05DEC13F0386A22
:1018B0007C0E396E120E3A6E470E3B6EC6EC14F07B
:1018C00066EC13F033C0E6FF34C0E6FF35C0E6FF38
:1018D00036C0E6FFF8EC1EF0E552E552E552E5525F
:1018E000E552E7CF03F0E552E7CF02F097EC13F0B3
:1018F00032C004F033C005F034C006F035C007F044
:1019000032C038F033C039F034C03AF035C03BF063
:101910006FEC13F019EC15F033C00CF134C00DF17D
:1019200035C00EF136C00FF1386A396A3A6A470E8F
:101930003B6E19EC15F0F7EC15F034C047F035C0EC
:1019400048F0496A4A6A4B6A4C6A4D6A4E6A4F6A65
:10195000506A516A526A536A546A429A060E66EC99
:1019600012F0F3CF40F0F4CF41F0428C9D9042AAA8
:10197000FED7429C9D80B7EC12F066EC13F0B7ECFA
:1019800012F05DEC13F06BEC12F008C033F009C0FC
:1019900034F00AC035F00BC036F019EC15F033C046
:1019A00004F034C005F035C006F036C007F0C1ECD5
:1019B00012F054EC13F0C1EC12F033C018F034C044
:1019C00019F035C01AF036C01BF06BEC12F014C0E1
:1019D00033F015C034F016C035F017C036F019ECEE
:1019E00015F033C010F034C011F035C012F036C01D
:1019F00013F06BEC12F004C033F005C034F006C0F5
:101A000035F007C036F030EC14F033C000F034C0CD
:101A100001F035C002F036C003F0B7EC12F033C06D
:101A200024F034C025F035C026F036C027F0C1ECD4
:101A300012F033C028F034C029F035C02AF036C087
:101A40002BF06BEC12F024C033F025C034F026C02C
:101A500035F027C036F019EC15F033C020F034C053
:101A600021F035C022F036C023F00CC138F00DC192
:101A700039F00EC13AF00FC13BF019EC15F033C04C
:101A80001CF034C01DF035C01EF036C01FF06BECEA
:101A900012F06FEC13F02FEC14F033C008F134C0E7
:101AA00009F135C00AF136C00BF126EC16F032C050
:101AB000DEFF33C0DEFF34C0DEFF35C0DDFFDD52A8
:101AC000DD52A5EC13F0EECF00F0EECF01F0EECF3B
:101AD00002F0EFCF03F00C0E9EEC13F0FDE1FEECF4
:101AE00012F0FD0EDBCF04F0FE0EDBCF05F0B00EE2
:101AF0000426040E0522066A076A04C032F005C0F7
:101B000033F006C034F007C035F0DFCF37F0010EF8
:101B1000DBCF38F0020EDBCF39F0030EDBCF3AF02B
:101B20001EEC13F00B0E9EEC13F0FDE1FEEC12F038
:101B3000A5EC13F0D880FF0EEE54000EEE54000E0C
:101B4000EE54000EEE5406E2DE68DE6ADE6ADD6AFE
:101B5000DD52DD52000EDB50E76E040EE7CFDBFFF7
:101B6000DBCF00F001018F51D880005405E2040E54
:101B7000DBCFE6FFE1DDE552040EDB50006E050E23
:101B8000E15C02E2E16AE552E16E005062EF12F0C0
:101B9000080E66EC12F0F3CF6CF1F4CF6DF1200E6D
:101BA00066EC12F0F3CF6EF1F4CF6FF1220E66EC1B
:101BB00012F0F3CF70F1F4CF71F1240E66EC12F055
:101BC000F3CF72F1F4CF73F1260E66EC12F0F3CF7F
:101BD00074F1F4CF75F1280E66EC12F0F3CF76F1C4
:101BE000F4CF77F12A0E66EC12F0F3CF78F1F4CF50
:101BF00079F1100E66EC12F0F3CF10F1F4CF11F181
:101C0000120E66EC12F0F3CF12F1F4CF13F1140EB2
:101C100066EC12F0F3CF14F1F4CF15F1160E66EC6A
:101C200012F0F3CF16F1F4CF17F1180E66EC12F0A4
:101C3000F3CF18F1F4CF19F11A0E66EC12F0F3CFCE
:101C40001AF1F4CF1BF10C0E66EC12F0F3CF8FF10A
:101C50000E0E66EC12F0F3CF90F112005DEC12F074
:101C600097DF56EC12F001016E51001805E16F513B
:101C7000011802E1100E30D056EC12F0705100182D
:101C800005E17151011802E1120E26D056EC12F056
:101C90007251001805E17351011802E1140E1CD0B5
:101CA00056EC12F07451001805E17551011802E16B
:101CB000160E12D056EC12F07651001805E177514D
:101CC000011802E1180E08D0F1DB7851001810E17C
:101CD000795101180DE11A0EE66EFB0EDBCFE6FF1F
:101CE000FC0EDBCFE6FF62EC09F0E552E552E5526F
:101CF000E9D301016AC183F1846BFF0E8317000EE3
:101D000084170A0E8403F3CF84F18303F3CF83F1A6
:101D1000F4508427FF0E6915856F866B0A0E8603C3
:101D2000F3CF86F18503F3CF85F1F45086271200B7
:101D3000C4DB81EC13F0E552E5520A0EDADB5D6A92
:101D40005E6AFE0EDBCF81F199DC0101010EA06F0E
:101D5000D0DFB8D3B2DB0101C16BF4EC12F0030F9A
:101D6000CFDBEFCF02F0F4EC12F0020FC9DBEFCFC4
:101D700001F0EFEC13F0EFCF00F0F4EC12F0C0DB69
:101D8000EF500010011002102DE07A6B5C5107E05B
:101D9000F4EC12F0B5DBEF5002E0010EC16F5D51C3
:101DA00006E0EFEC13F0EF5002E0010EC16F585166
:101DB00008E0F4EC12F0020FA3DBEF5002E0010E9A
:101DC000C16F595108E0F4EC12F0030F99DBEF50AA
:101DD00002E0010EC16FC15104E0E668ADDCE552DE
:101DE00001D0E9DC6FD312006D0E376E4E0E386EE7
:101DF000C60E396E410E3A6ED4C132F0D5C133F001
:101E0000D6C134F0D7C135F08DEC1EF02EC0D4F120
:101E10002FC0D5F130C0D6F131C0D7F1390E010154
:101E2000D427300ED523000ED623D723D6C100F0F9
:101E3000D7C101F00001026A036A005012003DDBC5
:101E4000040EE126D1DF026E036A346E03C035F062
:101E500090EC13F0D9EC15F032C0DFFF010E33C067
:101E6000DBFF020EDB6A030EDB6AA5EC13F0EECF9C
:101E700004F0EECF05F0EECF06F0EFCF07F005C08F
:101E800000F006C001F007C002F00001036A0A0E6C
:101E90000026000E0122022203220A0E376E386A43
:101EA000396A3A6A00C032F001C033F002C034F03F
:101EB00003C035F0C3DB2EC0DFFF010E2FC0DBFFF8
:101EC000020E30C0DBFF030E31C0DBFFDFCF00F0BE
:101ED000010EDBCF01F000C0F3FF01C0F4FF040EE0
:101EE000E15C02E2E16AE552E16EECD2CBEC13F088
:101EF000010181050CE1A0510AE083C189F184C18F
:101F00008AF185C187F186C188F1010E83DB020E5B
:101F10000101815D22E1A05120E0010E896F8A6BF1
:101F20000A0E346E356A85C139F086C13AF0D9ECB3
:101F300015F032C087F133C088F192DB32C094F1E2
:101F400033C095F18DDB32C092F133C093F132C0D2
:101F5000E6FF33C0E6FFE4EC13F0030E0101815D00
:101F60000BE1A05109E0C4DBF3CF89F1F4CF8AF192
:101F70001FDB010E01014EDB040E0101815D33E127
:101F8000A05131E0B5DBF3CFDEFFF4CFDDFF010E72
:101F90000101896F8A6B0CDBDECF92F1DDCF93F10B
:101FA000020E396E3A6A92C134F093C135F086EC74
:101FB00015F034C092F135C093F1DECF94F1DDCF4E
:101FC00095F1020E396E3A6A94C134F095C135F03C
:101FD00086EC15F034C094F135C095F192C1E6FF5E
:101FE00093C1E6FFF1DB020EE15C02E2E16AE55239
:101FF000E16E68D2D0DB0AEC1BF00101A451026E45
:10200000036AA351006E016AA3C134F001C035F028
:10201000A4C139F003C03AF0ACEC15F032C0DEFFD9
:1020200033C0DDFF97DB013407E20050FF08000EEC
:10203000015402E2DE68DD6ADFCFA6F101018F51B3
:10204000D880A65505E2A6C1E6FF9CEC0BF0E55250
:1020500001019151A65D02E2DBEC0BF0020EE15CA6
:1020600002E2E16AE552E16E2DD2BFC100F0C0C1CB
:1020700001F0030E396E3A6ABFC134F0C0C135F0C9
:102080001FEC1FF030C000F031C001F030503110B3
:1020900003E10101030EBA6F10C1E6FF11C1E6FFB3
:1020A000A8DA01011C6F12C1E6FF13C1E6FFA1DA35
:1020B00001011D6F14C1E6FF15C1E6FF9ADA0101A7
:1020C0001E6F16C1E6FF17C1E6FF93DA01011F6F0D
:1020D00018C1E6FF19C1E6FF8CDA0101206F1AC1B1
:1020E000E6FF1BC1E6FF85DA0101216F91511C5DFE
:1020F00011E291511D5D0EE291511E5D0BE2915175
:102100001F5D08E29151205D05E29151215D02E2DF
:10211000DBEC0BF01200D1D9E652DF6AFE0EDB5089
:10212000DF5C04E22A0EBDD9DF2AF8D7E552CAD116
:1021300001016B6B666B676B686B5C6B5D6B586BFF
:10214000596B1200BAEC09F0520EABD9530EA9D953
:10215000530EA7D9490E34DB0101A35118DB530EEE
:10216000A0D94E0E9ED9520E2BDB0101A451C7EF10
:1021700013F0A3D9060EE1267E6A7F6A93688A6807
:10218000429E429CBEDAE552E552800E946E850E68
:10219000CD6ED10ECF6E200ECE6E9F809D807C0EB8
:1021A000CA6E0F0EBD6E010EB96E090ECB6EB66A09
:1021B000800EB76E050EBE6E9F829D82F28CD08E11
:1021C000F28E33EC09F0BAEC09F0560E6AD9010E22
:1021D0008BD9300F66D92E0E64D9020E85D9300FF7
:1021E00060D9BAEC09F0490E5CD916EC1AF0520E1F
:1021F00058D92DEC1AF0640E7CD9500E52D9EBEC64
:102200001AF0640E76D9530E4CD9C6EC1AF0640E4F
:1022100070D9C5DA0A0E5AD98ED978DABAEC09F033
:10222000440E3FD922EC1BF0520E3BD966EC1BF05A
:10223000C80E5FD98B9C429A429C429E0101A16BC1
:102240007A6B816BC36B1E0E4FD97ED904E6020EEA
:10225000005C000E015805E2010E01017D6F7E6BEE
:1022600005D0E1D932C07DF133C07EF11F0E3CD9DB
:102270006BD904E6020E005C000E015805E2010E67
:1022800001017F6F806B05D0CED932C07FF133C0A2
:1022900080F11C0E29D9006E016A016E006A00C02F
:1022A000E6FFE66E1D0E20D942DA01010024696FB7
:1022B000000E01206A6FDE6ADD6A4CDAD8900150A8
:1022C00004E6100E005C000E015815E243DA300EF1
:1022D00000240AD9E66EDECFE9FFDDCFEAFFA90EC2
:1022E000E926010EEA22E552E750EF6EDF2A010EE1
:1022F000E4E3DB2AE2D7030EF7D80101A26F2D0E2B
:10230000F3D80101A86F2E0EEFD80101C26F040EA1
:10231000EBD80101A76FA251080A21E00F0A1DE0C6
:10232000010A18E0030A13E0010A0CE0070A08E0BA
:10233000010A04E0030A15E1010E05D0020E03D0E4
:10234000030E01D0040EE66EF3DCE5520AD0010E56
:10235000A16F07D0010E7A6F04D07A6B02D0010E04
:10236000C36F16DCFF0E01016C250101D46F150E41
:1023700001016D210101D56FD66BD76B5C68E80E4A
:102380005D6E030E5E6E7ED9BAEC09F001019051CC
:102390008F5D916F0101815101E0A8DD0101A15123
:1023A00001E028DE01017A5102E05FDE02D00A0E70
:1023B000A0D819DD0101A851050A43E0010A39E05E
:1023C000070A26E0010A0CE0020A02E0010A51E1D4
:1023D000BAEC09F001011C51A7D81CC1E6FF2FD0AF
:1023E000515147E0BAEC09F05EC1E6FF5FC1E6FF7C
:1023F00092D960C1E6FF61C1E6FF8DD962C1E6FFF7
:1024000063C1E6FF88D964C1E6FF65C1E6FF0DD070
:10241000060E6B5D2EE1EDD967C1E6FF68C1E6FFF0
:102420007AD969C1E6FF6AC1E6FFE9EC09F0E55235
:102430001FD088DE0101A651AAD9A6C1E6FF6BDE36
:1024400017D0060E6B5D15E1D4D95CC1E6FF98ECA0
:102450000AF0E5525DC1E6FF98EC0AF0E55258C17A
:10246000E6FF98EC0AF0E55259C1E6FF98EC0AF055
:10247000E5525EDEC2EC0AF00101BF2B000EC02364
:10248000F40ED880BF55010EC05501E383D7BF6B52
:10249000C06B0AEC1BF056DE3CEC1BF04CD836D976
:1024A00079D7E66EB1EC09F0E5521200FD0EDBCFF4
:1024B00000F0FE0EDBCF01F01200D9CFE6FFE1CF36
:1024C000D9FF1200E552E7CFD9FF1200E66E89EC82
:1024D00009F0E552120033C038F034C039F035C08D
:1024E0003AF036C03BF01200E66E3CEC09F0E552E3
:1024F0001200E66EE66A20EC09F0E552E5521200A1
:10250000EA6AA90FE96E010EEA221200FD0E00C070
:10251000DBFFFE0E01C0DBFF1200DF50EA6AC40FD2
:10252000E96E010EEA221200E66EE66A42EC0AF05B
:10253000E552E5521200F3CF00F0F4CF01F0F3CFF3
:10254000E6FFF4CFE6FF1200E66ED950040FE96E05
:10255000DACFEAFFE552E750EE6EED6A040EDBCF0C
:1025600000F0050EDBCF01F0D890015012004DC0F5
:1025700032F04EC033F04FC034F050C035F016EF9B
:1025800014F051C032F052C033F053C034F054C094
:1025900035F016EF14F0FD0EDBCFE6FFFE0EDBCFBD
:1025A000E6FF1200D950020FE96EDACFEAFF1200FF
:1025B00085C1E6FF86C1E6FF42DCE552E552F3CF76
:1025C00087F1F4CF88F11200FD0FE96EFF0EDA20DB
:1025D000EA6EEE50ED101200FD0EFE0EDBCF01F0A4
:1025E0000001800E01141200FE0EDB50040DF350AA
:1025F0001200FFEC0BF0E552E552120000C0DFFFC5
:10260000010E01C0DBFF020E02C0DBFF030E03C0A0
:10261000DBFF1200946F956B926F936BE66E93C124
:10262000E6FFE4EF13F00A0E346E356A040EDBCFDA
:1026300039F0050EDBCF3AF0ACEF15F08DEC1EF063
:102640002EC000F02FC001F030C002F031C003F006
:102650001200FD0EDBCF34F0FE0EDBCF35F01200A2
:102660000A0E346E356A83C139F084C13AF0D9EF6D
:1026700015F0FF0EE76EFD0EDBCF00F0E750001601
:10268000016A1200D00EE66E070EE66E20EC09F02D
:10269000E552E5521200E66EE66AF0EC1BF0E552F8
:1026A000E552E552E552120033C014F034C015F083
:1026B00035C016F036C017F0120033C00CF034C02D
:1026C0000DF035C00EF036C00FF0120033C008F028
:1026D00034C009F035C00AF036C00BF0120000C05B
:1026E00033F001C034F002C035F003C036F0120000
:1026F00083C1E6FF84C1E6FF1FEC0FF0E552E5520F
:102700001200010EE66EE66A8CEF0BF061EC0AF047
:10271000E552E5521200E9EC09F0E552E5521200EB
:10272000FD0EDBCF39F0FE0EDBCF3AF01200E552A2
:10273000E7CF01F0E552E7CF00F01200D890033266
:10274000023201320032E8061200D9CFE9FFDACFB7
:10275000EAFF1200DECF00F0DDCF01F01200DDDE77
:10276000EF50E66EC0EC09F0E552E66ED6DEE552BB
:10277000E750EF6ED2DEEF5094DEDF2A1200E76EF4
:1027800095DEE7500026000E012286EF12F0CCDE27
:10279000200E51EF12F091DE020EE1261200540ECF
:1027A00080DE0A0E93DEC7DE2C0E9EDE4BEF13F0AA
:1027B00084DEE652F0DE00EC0AF0E552E55212004B
:1027C00070DE3D0E51EF12F07CEC0BF0E552E5525D
:1027D0001200E1DE4EEC0BF0E552E5521200FE0E67
:1027E000DB50040DF32880EF12F0000E015A86EF43
:0E27F00012F0BAEC09F001016651C7EF13F0C8
:0227FE002D9E0E
:1028000008D02D9E35AE05D0346C351EE86A3522D1
:102810002D8E35C02FF034C02EF03F6A3E6A8E0EEA
:10282000306E316A79EF16F02D9E0CD02D9E35AEAC
:1028300009D0326C331E341E351EE86A332234222E
:1028400035222D8E35C02FF034C02EF033C03FF02E
:1028500032C03EF09E0E306E316A79EF16F03B7E4C
:102860002D6AB5EC16F0CDEC16F02DB65DEF16F036
:102870002DA20AD02DAA03D02DBE5DEF16F02DA4F7
:1028800069EF16F066EF16F02DAA05D02DAC69EFB2
:1028900016F066EF16F02DA00AD02DA808D02DBE98
:1028A00004D02DA402D072EF16F076EF16F03E6A37
:1028B000316A3B50365C3D6E10E333C03FF034C0AC
:1028C0002EF035C02FF036C03CF038C033F039C0A0
:1028D00034F03AC035F02D3A09D038C03FF039C055
:1028E0002EF03AC02FF03BC03CF03D6C2D9E2DBC2D
:1028F0002D8E3CC030F02DB0A5EF16F01A0E3D60C5
:10290000A5EF16F0306A366A2DA408D0336C341E59
:10291000351E361EE86A3422352236222DAC08D008
:102920003F6C2E1E2F1E301EE86A2E222F223022D0
:10293000326A3D5207E03634353234323332323285
:102940003D2EF9D733503F2634502E2235502F22BA
:102950003650302232C03EF02D9E30AE0BD03E6C51
:102960003F1E2E1E2F1E301EE86A3F222E222F22CF
:1029700030222D8E30A006D0D8802F322E323F321A
:102980003E323C2A3CC030F079EF16F02D6AB5ECAF
:1029900016F0CDEC16F02DB65DEF16F02DA205D099
:1029A0002DBA5DEF16F064EF16F02DBA70EF16F049
:1029B0002DA005D02DB85DEF16F070EF16F02DB8F4
:1029C00064EF16F0316A7F0E3624306EE86A3122E9
:1029D0003B50305EE86A315A1A0E3C6E366A3E6AE7
:1029E0003F6A2E6A2F6A3850335E3950345A3A5053
:1029F000355A000E365A09E73850332639503422FA
:102A00003A503522000E362201D03E8AD890333615
:102A1000343635363636D8903E363F362E362F365B
:102A20003C2EE1D7355034103310D8A43E8A79EFCC
:102A300016F02D6AB5EC16F0CDEC16F02DB65DEF64
:102A400016F02DA205D02DB85DEF16F064EF16F04C
:102A50002DAA05D02DB05DEF16F064EF16F02DB065
:102A600002D02DA802D070EF16F0316A3B50362408
:102A7000306EE86A31227E0E305EE86A315A3E6A74
:102A80003F6A2E6A2F6A3A503502F4CF2FF0F3CF07
:102A90002EF039503502F3503F26F4502E22000E0E
:102AA0002F223A503402F3503F26F4502E22000ECB
:102AB0002F2238503502F3503E26F4503F22000EAC
:102AC0002E222F2239503402F3503E26F4503F225A
:102AD000000E2E222F223A503302F3503E26F4509D
:102AE0003F22000E2E222F2238503402F4503E2670
:102AF000000E3F222E222F2239503302F4503E2660
:102B0000000E3F222E222F2279EF16F02C6A3AAEC9
:102B10008FEF15F0396C3A1EE86A3A222C1E35AE5A
:102B200097EF15F0346C351EE86A35222C1E1FEC29
:102B30001FF035BEA7EF15F02CAE000C346C351E1F
:102B4000E86A3522306C311EE86A3122000C2CBE56
:102B50009EEF15F02D88FF0C35C03FF034C03EF0DD
:102B600034503902F4CF33F0F3CF32F035503A021B
:102B7000F4CF35F0F3CF34F03902F3503326F4506C
:102B80003422E86A35223E503A02F3503326F4509C
:102B90003422E86A35223AAED2EF15F03E50345E68
:102BA0003F50355A3FAE000C3950345E3A50355ADA
:102BB000000C34C03EF034503902F4CF33F0F3CF80
:102BC00032F035503A02F4CF35F0F3CF34F0390219
:102BD000F3503326F4503422E86A35223E503A024C
:102BE000F3503326F4503422E86A3522000C2D6A63
:102BF000B5EC16F02DB601EF16F02DA20ED02DB4C7
:102C000005D07F0E356EFF0E346E1FD0800E356EF0
:102C1000346A1BD0356A346A18D02DB0FBD78F0EBA
:102C20003660EDD77E0E3664F5D78E0E365C05E045
:102C3000D89035323432362AF8D72DA406D0346CE9
:102C4000351EE86A352235AEE5D712002D6AB5EC9F
:102C500016F02DB630EF16F02DA20FD02DB407D000
:102C60007F0E356EFF0E346E336E326E25D0800EC1
:102C7000356E01D0356A000EF6D72DB0FBD7326A1B
:102C80009F0E3660EBD77E0E3664F4D79E0E365C10
:102C900007E0D8903532343233323232362AF6D722
:102CA0002DA40AD0326C331E341E351EE86A33223E
:102CB0003422352235AEDED712007F0E366EFF0E7F
:102CC000356E346E336E12007F0E2DBEFF0E366EE3
:102CD00002D07F0E366E800E356E346A336AF3D7BB
:102CE0002DAE04D0800E366E356AF7D7366A356A57
:102CF000F4D72F502E103F103E10F8E031BEF0D721
:102D00002FBE0CD030503110EBE0D8903E363F361D
:102D10002E362F363006D8A03106F2D73150D4E106
:102D20003028D2E03EAE11D07F0E3E1402E13FA02B
:102D30000CD03F2AE86A2E222F2207E3D8802F32B8
:102D40002E323F32302A3028BFE03050C9E03FC039
:102D500033F02EC034F02F34356E3030366E3532CD
:102D6000369E2DBE368E63EF16F03536363602E3CC
:102D70002D842D7E06E12D80366A356A346A336AE9
:102D80001200362803E0D88035321200D890353250
:102D900002E12D8212002D8612003A363B3602E304
:102DA0002D8C2D7E06E12D883B6A3A6A396A386A95
:102DB00012003B2803E0D8803A321200D8903A3211
:102DC000EAE12D8A1200ECEC16F02DB6000C2DB0C5
:102DD000000C2DA4000C010C2D6AB5EC16F0CDEC06
:102DE00016F02DB612002DAE08D02DA004D02DA8BF
:102DF00002D02D8012002D9012003B50365C0BE16A
:102E00003A50355C08E13950345C05E13850335CA8
:102E100002E12D801200D8A002D02D8E10D03650A5
:102E20003BC036F03B6E35503AC035F03A6E345008
:102E300039C034F0396E335038C033F0386E3B50FF
:102E4000365C10E0FF0F09E02D902DB403D02DAEBD
:102E50002D8412002DAE2D9412003B2AD8903A32C8
:102E6000393238323850335E3950345A3A50355A44
:102E700035BEEAD7D890333634363536362EF8D7C5
:022E8000C8D7B1
:0E2E8200D9CFE6FFDACFE6FFE1CFD9FFE2CFEE
:102E9000DAFF220EE12402E3E168E652E16ED95046
:102EA000130FE66E000EDA20E66EA8DAB0EC1DF025
:102EB000006E060EE15C02E2E16AE552E16E00504E
:102EC000E76E0E0EE7CFDBFFDB50840B0CE0210E2C
:102ED0000101D86FD96B0F0EDB68100EDB68110E85
:102EE000DB687F0E6ED08ADA36DA020E32C0DBFF84
:102EF000030E33C0DBFF040E34C0DBFF050E35C00C
:102F0000DBFF87DA386A100E396E490E3A6E460ECC
:102F100014DAE3EC16F0010A32E07BDA67DA0DDA54
:102F2000C6EC14F0BFD9060EDBCF33F0070EDBCFB3
:102F300034F0080EDBCF35F0090EDBCF36F026EC8F
:102F400016F016EC14F0AED964DA060EDBCF08F0FA
:102F5000070EDBCF09F0080EDBCF0AF0090EDBCF3E
:102F60000BF044DA3B6E08C033F009C034F00AC0FD
:102F700035F00BC036F048DA2FEC14F0C4D9F90E56
:102F8000DB5012E00E0EDB040BE1FA0EDBCF00F09B
:102F9000FB0EDBCF01F0FC0EDBCF02F0FD0E52D1B9
:102FA00067D93A6AF8D947D00E0EDB0419E10F0E43
:102FB000DB6A100EDB6A800EF36E110EF3CFDBFFBF
:102FC0003F0EF36E120EF3CFDBFF0F0EDBCF00F0E0
:102FD000100EDBCF01F0110EDBCF02F0120E32D15A
:102FE000190EDB6A45D9800E3A6ED5D9006A016A9E
:102FF000026A3F0E036ED950060FE96E000EDA200A
:10300000EA6EEECF33F0EECF34F0EECF35F0EFCF07
:1030100036F000C038F001C039F002C03AF003C009
:103020003BF02FEC14F036C0EDFF35C0EDFF34C09F
:10303000EDFF33C0EFFFDF50010B0AE0190EDB504C
:1030400002E0000E01D0010EE76E190EE7CFDBFFA4
:103050008CD9060EDBCF0CF0070EDBCF0DF0080E7F
:10306000DBCF0EF0090EDBCF0FF0386A396A490E5C
:103070003A6E400E3B6E0CC033F00DC034F00EC003
:1030800035F00FC036F019EC15F05CD9A6D995D9FA
:103090002FEC14F077D9060EDBCF14F0070EDBCF40
:1030A00015F0080EDBCF16F0090EDBCF17F0220E5D
:1030B000386EAA0E396E7D0E3A6E3A0E3B6E14C013
:1030C00033F015C034F016C035F017C036F019ECE7
:1030D00015F033C010F034C011F035C012F036C016
:1030E00013F0EDD82FEC14F00A0E33C0DBFF0B0EFB
:1030F00034C0DBFF0C0E35C0DBFF0D0E36C0DBFF2E
:10310000D9500A0FE96E000EEAD825D932C000F076
:1031100033C001F034C002F035C003F0386A396AB8
:10312000800E3A6E390E3B6E32C033F04FD9E3EC6D
:1031300016F0010A13E1D9500A0FE96E000EDA20E9
:10314000EA6E020EEECFDBFF030EEECFDBFF040EC6
:10315000EECFDBFF050EEECFDBFF68D0E1D80A0E25
:10316000DBCF38F00B0EDBCF39F00C0EDBCF3AF0B3
:103170000D0EDBCF3BF019EC15F01A0E33C0DBFF60
:103180001B0E34C0DBFF1C0E35C0DBFF1D0E36C02E
:10319000DBFF5B0E336E9C0E346E2E0E356E360EDC
:1031A000366E72D8CFD8220E386EB20E396E4F0EF0
:1031B0003A6EB90E32D99ED83E0E386E870E396EF1
:1031C000080E3A6E3C0E29D9DDD8A40E386EAA0E30
:1031D000396E2A0E3A6EBE0E20D91E0E33C0DBFFAA
:1031E0001F0E34C0DBFF200E35C0DBFF210E36C0C2
:1031F000DBFF0A0EDBCF00F00B0EDBCF01F00C0E75
:10320000DBCF02F00D0EDBCF03F08AD81E0EDBCF32
:1032100038F01F0EDBCF39F0200EDBCF3AF0210E55
:10322000DBCF3BF0F1D830EC14F06DD8190EDB5049
:1032300008E09BD8386A396A800E3A6EBF0EF0D823
:1032400003D042D8DBCF03F000C032F001C033F02E
:1032500002C034F003C035F0220EE15C02E2E16A04
:10326000E552E16EE552E5CFDAFFE7CFD9FF120074
:103270007CD8830E386EF90E396EA20E3A6E3E0E71
:10328000CFD8386A396A12001A0EDBCF38F01B0E1D
:10329000DBCF39F01C0EDBCF3AF01D0EDBCF3BF05D
:1032A00019EF15F0060E33C0DBFF070E34C0DBFF4D
:1032B000080E35C0DBFF090E36C0DBFF12008DD8CB
:1032C00000C033F0E6EF19F0020EDBCF00F0030E82
:1032D000DBCF01F0040EDBCF02F0050E1200DA2086
:1032E000EA6EEECFE6FFEECFE6FFEECFE6FFEFCFE2
:1032F000E6FF120033C004F034C005F035C006F01C
:1033000036C007F01200020E33C0DBFF030E34C0DC
:10331000DBFF040E35C0DBFF050E36C0DBFF1200FD
:103320000A0EDBCF33F00B0EDBCF34F00C0EDBCF0D
:1033300035F00D0EDBCF36F012003B6E00C033F0DF
:10334000E6EF19F033C008F034C009F035C00AF0D8
:1033500036C00BF01200C5EC1EF0E552E552E55206
:10336000E55212003B6E30EF14F0020EDBCF04F09A
:10337000030EDBCF05F0040EDBCF06F0050EDBCF2E
:1033800007F0120033C000F034C001F035C002F085
:1033900036C003F012003F0EE5DFF7EC15F034C045
:1033A000DEFF35C0DDFF000EDFCF34F0010EDBCFD6
:1033B00035F001EC14F052EF19F004C033F005C001
:1033C00034F006C035F007C036F0120001C034F00A
:1033D00002C035F003C036F0120033C038F034C0FC
:1033E00039F035C03AF036C03BF01200DB0E386ED3
:1033F0000F0E396EC90E3A6E400E1200D950FA0FF8
:10340000E96EFF0E6FEF19F019EC15F073DF5FEF47
:1034100019F05ADFDBCF03F01200A4DF44EF19F0FC
:0C3420003B6ECBDF19EC15F0C2EF19F089
:04342C00938C938862
:10343000C00EC76E380EC66EC56A1D0EC86EC69E1B
:10344000A196120065D8F3CF00F0F4CF01F0800E02
:10345000F318F8E10150F6E112008B968B9017DA21
:103460008B8615DA8B8013DA22EF1AF09E96C580D0
:103470009EA6FED79E9612009E96C584C5B4FED722
:103480009E961200D9D9FE0EDB50C96E9E969EA65E
:10349000FED7C550400B01E0010E016AF36E01C07A
:1034A000F4FF23D2C5869E96C5B6FED7C95012003A
:1034B00020DA640EDE6EDD6AC58AC5889E969E504F
:1034C000080B07E1DAD905E0DF06010EF8E2DB06BA
:1034D000F6D7D3D9020EE15C02E2E16AE552AAD145
:1034E00008DA640EDE6EDD6AC59AC5889E969E5027
:1034F000080B07E1C2D905E0DF06010EF8E2DB06A2
:10350000F6D7BBD9020EE15C02E2E16AE55292D144
:10351000F0D9E7D9C7DFDE6EDD6AD1D9DECF00F0A2
:10352000DDCF01F0800E0016000E011600C0F3FF83
:1035300001C0F4FF020EE15C02E2E16AE5527AD1D9
:103540007BD9040E7ED9B4D901C000F0016AFF0E08
:103550000016000E0116020E00C0DBFFFF0EE76E24
:10356000A7D9E7500016016A030E00C0DBFFAAD9F5
:10357000120E53D97AD9020EC7D9030EC5D984D9F0
:10358000040EE15C02E2E16AE55254D1350EE66ECA
:10359000820EE66E010EE66E020E42D9240EE66E33
:1035A000E66A020EE66E10EF1CF046D9020E49D90B
:1035B00089D9200E32D959D9E66A90D965D9020E37
:1035C000E15C02E2E16AE55235D17CD9210E25D9D0
:1035D000040E81EF1CF076D9010E1FD9E66A7ED960
:1035E000B50E81EF1CF028D9E6527BD9DF6AFE0EBA
:1035F000DB04DF5C07E256DFE66EDF5050D970DF98
:10360000DF2AF5D74FDFE66EFE0EDB0448D957D927
:10361000E5526BD16ED956D9230E58D929C1A5F1DF
:103620002AC1A3F12BC1A4F101012A51006E016A44
:103630002AC1F3FF01C0F4FF020EE15C02E2E16A7D
:10364000E552F8D0430EE66EE66A020EE66E010E13
:10365000E7D87C0EE66E920EE66E040EE66E010E64
:10366000DFD8000EE66EE66A050E47D9000EE66E5C
:10367000E66A060E7DEF1CF0DFD8040EE12622D9A3
:10368000220E24D901012851026E036A28C103F0D9
:10369000026A295100010224006E000E0320016E0F
:1036A000020E00C0DBFF030E01C0DBFF020EDBCF0A
:1036B00000F0030EDBCF01F000C0F3FF01C0F4FF08
:1036C000040EE15C02E2E16AE552B4D0010EE66E5E
:1036D000E668020EE66E150E10EF1CF00101030EF7
:1036E000B96FF0D8240E99D8010E0BD9FAD8DADECA
:1036F0000101506F9CD80101516F99D80101526F9F
:1037000096D80101536F93D80101546F90D80101ED
:10371000556F8DD80101566F8AD80101576F87D830
:1037200001015C6F84D801015D6F81D80101586F80
:103730007ED80101596F7BD801015A6FC0D80101B1
:10374000535101E1120051514AE054C100F054C1FB
:1037500001F0006A01015551010100245E6F000E65
:1037600001205F6F56C100F056C101F0006A0101EF
:10377000575101010024606F000E0120616F5CC190
:1037800000F05CC101F0006A01015D5101010024FB
:10379000626F000E0120636F58C100F058C101F044
:1037A000006A0101595101010024646F000E0120DB
:1037B000656F010156390F0B0F0B01016B6F060E80
:1037C0006B5D0DE11F0E010157150101666F62C1AE
:1037D00067F163C168F164C169F165C16AF1120002
:1037E0002BD8FD0EDBCFE6FFFE0EDBCFE6FF070E8C
:1037F00084D8FB0EDBCFE6FFFC0EDBCFE6FFD5DE89
:10380000E552E552F40EE66E010EE66E20EC09F08C
:10381000E552E55231DFFEDE68D0E66E6EEF1CF059
:10382000E66E8EDEE552E552E552E552120058DEB4
:1038300052EF1AF0E16E59D0D9CFE6FFE1CFD9FFB0
:103840001200E126FE0EDBCF01F001C000F00150B6
:10385000DF6EFF0EE76EFD0EDBCF00F0E7500016C7
:10386000016A010E00C0DBFF1200E66A37D8DFCF25
:10387000E6FF34D8010E84EF1CF0D9CFE9FFDACF90
:10388000EAFFEE50ED101200F7DD22EF1AF0080EFD
:10389000E66EE66A20EC09F0E552E5521200EA6AAB
:1038A000260FE96E010EEA22E552E750EF6E120094
:1038B000FB0EDBCF00F0FC0EDBCF01F01200F8DDD9
:1038C0003CEF1AF0D3DD220E0DEF1CF0A6DF010E47
:1038D00018D8080EE66E87DEE5521200D3DDE552F9
:1038E0001200C4DD230E0DEF1CF0E552E7CFD9FF27
:1038F0001200A2DF020EE1261200E66E110E10EF9A
:103900001CF08BDF44EF1CF0DBCFE6FF6EEF1CF00A
:10391000DACFE4FFE2CFDAFFE9CFE4FFEACFE4FF5A
:10392000F6CFE4FFF7CFE4FFF5CFE4FFF3CFE4FFFA
:10393000F4CFE4FFFACFE4FF00EE2CF0140EE8041D
:1039400003E3EECFE4FFFBD700EE00F02C0EE8041B
:1039500003E3EECFE4FFFBD7E6529EA01BD09E9080
:10396000D10ECF6E200ECE6E59505A1003E059067C
:10397000000E5A5A0101B95105E08B98B907B951A7
:1039800001E18B88BA5105E08B94BA07BA5101E185
:103990008B8424D8E55200EE2BF02C0EE80403E3D0
:1039A000E5CFEDFFFBD700EE3FF0140EE80403E394
:1039B000E5CFEDFFFBD7E5CFFAFFE5CFF4FFE5CF8D
:1039C000F3FFE5CFF5FFE5CFF7FFE5CFF6FFE5CF56
:1039D000EAFFE5CFE9FFE5CFDAFF110001019851D9
:1039E00099113AE0A06B010E981904E1995102E196
:1039F0005C682CD0010E9C1907E19D5105E15C2A01
:103A0000FF0E5C5C29E122D09C519D1118E19A07C0
:103A1000000E9B5B5C50016A9E25006E9F51012247
:103A2000FF0ED8800054000E015402E25C680ED0F4
:103A30005C50006E016A5C509E255C6E0DD083D890
:103A40000BE389D85C2AFF0E5C5C06E1986B996BEE
:103A500089C18DF18AC18EF18D518E111DE08D07C6
:103A6000000E8E5BD8808D55000E8E5515E395C1E6
:103A70009CF19D6B346A010E356E94C139F095C18D
:103A80003AF01FEC1FF034C09EF135C09FF163D8AF
:103A900094C196F195C197F101019651971139E0C2
:103AA000010E961904E1975102E15C6A2CD0010ED7
:103AB0009C1909E19D5107E15C5025E05C065C50D2
:103AC000000827E320D09C519D1114E19A07000EB5
:103AD0009B5B9E515C5C000E9F550AE35C50036A41
:103AE0009E515C5C006E9F51035800505C6E11D07B
:103AF0005C6A09D028D804E32ED85C5001E05C064B
:103B00005C50000806E3966B976B87C18BF188C108
:103B10008CF18B518C110AE08B07000E8C5BD880E6
:103B20008B55000E8C5502E3010EA06F5D505E10A8
:103B300009E05D06000E5E5AD8805D54000E5E54AA
:103B400001E35C6A12009A07000E9B5BD8809A55CD
:103B5000000E9B5512009CC19AF19DC19BF1120071
:103B6000D9CFE6FFDACFE6FFE1CFD9FFE2CFDAFF28
:103B7000E652006801687F0E026E036AD950FA0FA0
:103B8000E96EFF0EDA20EA6EEE500016EE500116D6
:103B9000EE500216EE5003166AD800C0EEFF01C0C8
:103BA000EEFF02C0EEFF03C0EEFFFD0EDB50800B08
:103BB00002E0010E01D0000EE66E59D8060EE9268D
:103BC000000EEA22E552E750EF6EFC0EDBCF00F06C
:103BD000FD0EDBCF01F0D89000360136FC0E00C0A0
:103BE000DBFFFD0E01C0DBFFDB50E66E40D8040EAC
:103BF000E926000EEA22E552E750EE6EED6AFD0E70
:103C0000DB50006E016AFF0E001818E1015016E14A
:103C10002ED8EECF00F0EECF01F0EECF02F0EFCFD6
:103C200003F0005001100210031006E0210E010104
:103C3000D86FD96B800E0BD0040E09D0FD0EDB506F
:103C400008E115D8EE6AEE6AEE6AEE6A010EDF6EE2
:103C500006D0020EDF6E0BD8EE52EE52EE8EDF5023
:103C6000E552E552E5CFDAFFE7CFD9FF1200F80EB3
:0C3C7000DBCFE9FFF90EDBCFEAFF12000A
:043C7C00200EF66EB2
:103C8000100EF76E000EF86E01010900F550CF6FAF
:103C90000900F550D06F03E1CF6701D03DD0090096
:103CA000F550CA6F0900F550CB6F0900F550CC6F85
:103CB00009000900F550E96E0900F550EA6E0900A7
:103CC00009000900F550CD6F0900F550CE6F0900CD
:103CD0000900F6CFD1F1F7CFD2F1F8CFD3F1CAC1B5
:103CE000F6FFCBC1F7FFCCC1F8FF0101CD5302E1D4
:103CF000CE5307E00900F550EE6ECD07F8E2CE078F
:103D0000F9D7D1C1F6FFD2C1F7FFD3C1F8FF010146
:0A3D1000CF07000ED05BBFD71200F2
:063D1A0032503702F3CF26
:103D20002EF0F4CF2FF03802F3502F26000EF4209F
:103D3000306E32503902F3503026000EF420316ECE
:103D400032503A02F350312633503702F3502F26C7
:103D5000F4503022000E312233503802F350302616
:103D6000F450312233503902F350312634503702A7
:103D7000F3503026F450312234503802F3503126BB
:0A3D800035503702F35031261200CF
:063D8A00D9CFE6FFDACFFD
:103D9000E6FFE1CFD9FFE2CFDAFFE652E652D95093
:103DA000FD0F006EFF0EDA2000C0DEFFDD6EDECFFD
:103DB000E9FFDDCFEAFFEF9EFA0EDBCF00F0FB0E4E
:103DC000DBCF01F0FC0EDBCF02F0FD0EDBCF03F00A
:103DD00000C032F001C033F002C034F003C035F04F
:103DE000E552E552E552E5CFDAFFE7CFD9FF120001
:103DF000D9CFE6FFDACFE6FFE1CFD9FFE2CFDAFF96
:103E0000E66AD950FA0FE96EFF0EDA20EA6EEECFBD
:103E1000E6FFEECFE6FFEECFE6FFEFCFE6FF41ECA9
:103E200017F0006E050EE15C02E2E16AE552E16E18
:0E3E30000050E552E5CFDAFFE7CFD9FF1200D0
:023E3E00316AE7
:103E4000306A100EE76ED89034363536303631365B
:103E50003950305C3A50315805E33950305E3A50B1
:0A3E6000315A342AE72EF0D7120081
:063E6A00000EF36E00EEF5
:103E700000F0030E01D81200EA6002D0EE6AFCD70F
:0A3E8000F350E9601200EE6AFCD76F
:063E8A0012EE00F022EE32
:103E900000F0F86A2D9C3EEC1EF00BEC08F0B9EC3B
:063EA00010F0FBD7120038
:043EA6000100000017
:0200000400F00A
:10000000A5030306020303E800002A260064001982
:10001000012C019001F40000000000000101010129
:10002000FFF0F01AF000FFF1FFF2FFF3000100FF14
:1000300000000001000000010000000000000000BE
:00000001FF
